{
  "contractName": "ApprovalContract",
  "abi": [
    {
      "constant": true,
      "inputs": [],
      "name": "approver",
      "outputs": [
        {
          "name": "",
          "type": "address"
        }
      ],
      "payable": false,
      "stateMutability": "view",
      "type": "function"
    },
    {
      "constant": true,
      "inputs": [],
      "name": "sender",
      "outputs": [
        {
          "name": "",
          "type": "address"
        }
      ],
      "payable": false,
      "stateMutability": "view",
      "type": "function"
    },
    {
      "constant": true,
      "inputs": [],
      "name": "reciever",
      "outputs": [
        {
          "name": "",
          "type": "address"
        }
      ],
      "payable": false,
      "stateMutability": "view",
      "type": "function"
    },
    {
      "constant": false,
      "inputs": [
        {
          "name": "_receiver",
          "type": "address"
        }
      ],
      "name": "deposit",
      "outputs": [],
      "payable": true,
      "stateMutability": "payable",
      "type": "function"
    },
    {
      "constant": true,
      "inputs": [],
      "name": "viewApprover",
      "outputs": [
        {
          "name": "",
          "type": "address"
        }
      ],
      "payable": false,
      "stateMutability": "pure",
      "type": "function"
    },
    {
      "constant": false,
      "inputs": [],
      "name": "approve",
      "outputs": [],
      "payable": false,
      "stateMutability": "nonpayable",
      "type": "function"
    }
  ],
  "bytecode": "0x608060405234801561001057600080fd5b50610434806100206000396000f300608060405260043610610078576000357c0100000000000000000000000000000000000000000000000000000000900463ffffffff16806312424e3f1461007d578063141a8dd81461009457806367e404ce146100eb578063d93ce89c14610142578063f340fa0114610199578063f4b0b756146101cf575b600080fd5b34801561008957600080fd5b50610092610226565b005b3480156100a057600080fd5b506100a96102f6565b604051808273ffffffffffffffffffffffffffffffffffffffff1673ffffffffffffffffffffffffffffffffffffffff16815260200191505060405180910390f35b3480156100f757600080fd5b5061010061030e565b604051808273ffffffffffffffffffffffffffffffffffffffff1673ffffffffffffffffffffffffffffffffffffffff16815260200191505060405180910390f35b34801561014e57600080fd5b50610157610333565b604051808273ffffffffffffffffffffffffffffffffffffffff1673ffffffffffffffffffffffffffffffffffffffff16815260200191505060405180910390f35b6101cd600480360381019080803573ffffffffffffffffffffffffffffffffffffffff16906020019092919050505061034f565b005b3480156101db57600080fd5b506101e46103e2565b604051808273ffffffffffffffffffffffffffffffffffffffff1673ffffffffffffffffffffffffffffffffffffffff16815260200191505060405180910390f35b73627306090abab3a6e1400e9345bc60c78a8bef5773ffffffffffffffffffffffffffffffffffffffff163373ffffffffffffffffffffffffffffffffffffffff1614151561027457600080fd5b600160009054906101000a900473ffffffffffffffffffffffffffffffffffffffff1673ffffffffffffffffffffffffffffffffffffffff166108fc3073ffffffffffffffffffffffffffffffffffffffff16319081150290604051600060405180830381858888f193505050501580156102f3573d6000803e3d6000fd5b50565b73627306090abab3a6e1400e9345bc60c78a8bef5781565b6000809054906101000a900473ffffffffffffffffffffffffffffffffffffffff1681565b600073627306090abab3a6e1400e9345bc60c78a8bef57905090565b60003411151561035e57600080fd5b336000806101000a81548173ffffffffffffffffffffffffffffffffffffffff021916908373ffffffffffffffffffffffffffffffffffffffff16021790555080600160006101000a81548173ffffffffffffffffffffffffffffffffffffffff021916908373ffffffffffffffffffffffffffffffffffffffff16021790555050565b600160009054906101000a900473ffffffffffffffffffffffffffffffffffffffff16815600a165627a7a72305820488188eef38bcf6178a5b3645594f2237f38bb9acecb987eb956bd30e6a705350029",
  "source": "pragma solidity ^0.4.18;\n\ncontract ApprovalContract {\n\n\taddress public sender;  //type called address representing the sender \n\taddress public reciever;\n\taddress public constant approver = 0x627306090abab3a6e1400e9345bc60c78a8bef57; //setting this type equal to a value for running tests, same as above only difference is its accepting values\n\n    //function to hacle deposits, external meaning that this function can called from outside this contract and jsut internally\n\tfunction deposit(address _receiver) external payable { // this is extenal payable because its taking in ether\n\n\t\trequire(msg.value > 0); // condition to check if the sender is actually depositing something in the deposit function\n\t\tsender = msg.sender; // just to see who is sending the money in\n\t\treciever = _receiver;\n\n\t} \n     // will not cause any gas\n\tfunction viewApprover() external pure returns(address){\n\n\t\treturn (approver);\n\t}\n\t// this is the actuall approve that will release the money\n\tfunction approve() external {\n\n\t\trequire(msg.sender == approver);\n\t\treciever.transfer(address(this).balance);\n\n\t}\n}",
  "sourcePath": "/home/jackson/projects/contracts/contracts/ApprovalContract.sol",
  "compiler": {
    "name": "solc",
    "version": "0.4.24+commit.e67f0147.Emscripten.clang"
  },
  "schemaVersion": "2.0.1",
  "updatedAt": "2018-08-30T14:56:18.913Z"
}